:020000040800F2
:10000000009800207D02000807070008A7050008E7
:100010000507000837040008691100080000000007
:10002000000000000000000000000000C501000802
:10003000390400080000000019020008A50F00089C
:10004000970200089702000897020008970200082C
:10005000970200089702000897020008970200081C
:10006000970200089702000897020008970200080C
:1000700097020008970200089702000897020008FC
:1000800097020008970200089702000897020008EC
:1000900097020008970200089702000897020008DC
:1000A00097020008970200089702000897020008CC
:1000B00097020008970200089702000897020008BC
:1000C00097020008970200089702000897020008AC
:1000D000970200089702000897020008970200089C
:1000E000970200089702000897020008970200088C
:1000F000970200089702000897020008970200087C
:10010000970200089702000897020008970200086B
:10011000970200089702000897020008970200085B
:10012000970200089702000897020008970200084B
:10013000970200089702000897020008970200083B
:10014000970200089702000897020008970200082B
:10015000970200089702000897020008970200081B
:10016000970200089702000897020008970200080B
:1001700097020008970200089702000897020008FB
:1001800097020008970200089702000897020008EB
:1001900097020008970200089702000897020008DB
:1001A000970200089702000897020008DFF810D0B5
:1001B00000F0A8F80048004791140008AFF3008051
:1001C000009800202A4B19680868B0E8F04F80F3C7
:1001D0000988BFF36F8F4FF0000080F311887047DC
:1001E0000000000006480068006880F3088862B6D6
:1001F00061B6BFF34F8FBFF36F8F00DF00BF00BF4B
:1002000008ED00E0DFF80C00016841F470010160C6
:10021000704700BF88ED00E0EFF30980BFF36F8FF8
:10022000134B1A681EF0100F08BF20ED108A20E94A
:10023000F04F106008B44FF0500080F31188BFF306
:100240004F8FBFF36F8F01F0E9FE4FF0000080F396
:10025000118808BC19680868B0E8F04F1EF0100F4C
:1002600008BFB0EC108A80F30988BFF36F8F704726
:100270007C000020EFF305807047000006488047AF
:1002800006480047FEE7FEE7FEE7FEE7FEE7FEE77B
:10029000FEE7FEE7FEE7FEE7B90F0008AD01000844
:1002A0002DE9F05F0546002092469B4688460646AB
:1002B000814640241BE0284641464746224600F03E
:1002C00042F853465A46C01A914110D31146184677
:1002D000224600F029F82D1A67EB01084F46224606
:1002E0000120002100F020F817EB00094E41201EEC
:1002F000A4F10104DFDC484631462A464346BDE806
:10030000F09F0000064C074D06E0E06840F0010356
:1003100094E8070098471034AC42F6D3FFF74AFF41
:100320003024000850240008202A04DB203A00FA78
:1003300002F1002070479140C2F1200320FA03F33C
:10034000194390407047202A04DB203A21FA02F03A
:100350000021704721FA02F3D040C2F120029140FF
:1003600008431946704700001CB501F0D5FB022078
:1003700013490402CDE900010023224611A11448CB
:1003800001F02EFF012802D112A000F0EFFE0C496F
:100390000320091DCDE900010023224614A11748BE
:1003A00001F01EFF012802D115A000F0DFFE044875
:1003B0000838406801F0B6FCBDE81C4001F0E8BB1D
:1003C0002C000020546573745F5461736B0000004F
:1003D00015100008B4B4BDA8546573745F546173FC
:1003E0006BC8CECEF1B3C9B9A6210D0A000000003A
:1003F0004B45595F5461736B00000000A90500086C
:10040000B4B4BDA84B45595F5461736BC8CECEF1EF
:10041000B3C9B9A6210D0A0010B507E003780C781E
:10042000A34201D0002010BD401C491C521E92B2B4
:10043000F4D2012010BDFEE770470000F0B50121A5
:1004400087B0084600F09CF90121102000F0A4F9C3
:10045000012500248DF806408DF807500226680219
:10046000254F8DF8056000908DF804606946384688
:1004700000F046F8A80200908DF8046069463846FE
:1004800000F03EF807220A21384600F075F80722EE
:100490000921384600F070F84FF4E130ADF80C4017
:1004A0000290ADF80E40ADF81040ADF814400C20AD
:1004B000124CADF8120002A9204600F0FBFD4FF4EB
:1004C000A06000F053F925208DF818008DF8195020
:1004D0008DF81A508DF81B5006A800F015F901226E
:1004E00040F22551204600F0CCFD0121204600F0CD
:1004F000B7FD07B0F0BD0000000002400010014051
:10050000F0B5002201274FF0030C0B6807FA02F543
:100510002B40AB422CD1066853000CFA03F4A643DF
:1005200006600E79D0F800E09E4046EA0E060660AE
:100530000E79012E01D0022E12D18668A643866064
:100540004E79D0F808E09E4046EA0E06866046687E
:10055000AE43466045688E799640B6B235434560F5
:10056000C568A543C560CC799C40C3681C43C46082
:10057000521C102AC9D3F0BD4B07DB0E9A40C908A4
:1005800010B500EB8100016A0F249C40A143016279
:10059000016A1143016210BD0246002012690A423D
:1005A00000D001207047FEE7134D144F144C4FF458
:1005B00000560121284600F065F8012808D111A055
:1005C00000F0D4FDA06801F0B5FC12A000F0CEFD53
:1005D0003146384600F056F8012808D112A000F044
:1005E000C5FDA06801F008FC13A000F0BFFD1420B9
:1005F00001F05EFBDDE70000000002400008024061
:1006000024000020B9D2C6F054657374C8CECEF170
:10061000A3A10A00B9D2C6F054657374C8CECEF156
:10062000B3C9B9A6A3A10A00BBD6B8B45465737404
:10063000C8CECEF1A3A10A00BBD6B8B4546573747A
:10064000C8CECEF1B3C9B9A6A3A10A001CB5012139
:10065000052000F095F80120009000208DF804009E
:10066000074C8DF8070069462046FFF749FF4FF415
:100670000051009169462046FFF742FF1CBD000073
:100680000008024070B50C460546FFF785FF0128BB
:1006900001D0002070BD21462846FFF77DFF0128CC
:1006A000F9D0012070BD00002DE9FC41012180201E
:1006B00000F066F801208DF8040000218DF8061086
:1006C0008DF807000E4F4FF480648DF805100094EC
:1006D00069463846FFF714FF6500694638460095BD
:1006E000FFF70EFFA600694638460096FFF708FFA1
:1006F00003481830048005800680BDE8FC810000B6
:10070000001C0240FEE7704730B50F23C278017825
:100710000125FAB1144A126801F1E02102F4E06205
:10072000C2F5E062C2F30722C2F10404D34042786A
:10073000A24084781C401443220181F800240078F0
:1007400000F01F018D404009800000F1E020C0F85A
:10075000005130BD01F01F0085404809800000F1C4
:10076000E020C0F8805130BD0CED00E002490843A4
:1007700002490860704700000000FA050CED00E037
:10078000044A0029116801D0014300E0814311604F
:100790007047000030380240044A0029116801D037
:1007A000014300E08143116070470000443802407B
:1007B00070B5204B1968204C11F00C0104D01F4E6D
:1007C000042903D0082903D004601BE0066019E067
:1007D000184A121F1168C1F38055116801F03F01DA
:1007E00015B1B6FBF1F101E0B4FBF1F11468126848
:1007F000C4F388146143C2F30142521C5200B1FB9E
:10080000F2F1016019680F2202EA11110C4A545CDE
:100810000168E14041601C68072505EA9424145DE5
:1008200021FA04F484601B6805EA5333D25CD1409A
:10083000C16070BD083802400024F40040787D019A
:10084000140000200029018802D041F0400101E09D
:1008500021F04001018070472DE9F0410446114824
:10086000402715460E460780032000F0A3F9300EFE
:1008700000F0A0F9C6F3074000F09CF9C6F307208A
:1008800000F098F9F0B200F095F904E0FF2000F0D4
:1008900091F904F8010B6D1EF8D20248801E078002
:1008A000BDE8F0811A1402402DE9F04706460D46D6
:1008B00011F0FF00C0F10001CFB2C2F3072402F033
:1008C000FF094FF4807A13D0E8B24042C0B205EB82
:1008D00000080CB3D01BC0F3072400F0FF093A4610
:1008E0002946304600F0BEF83E44454657462DE0C6
:1008F0006CB15746641EE4B20CD33A4629463046E2
:1009000000F0B0F805F5807506F58076F2E7294627
:1009100030460EE04A46FAE7B945F8D9A9EB070098
:10092000C4B23A462946304600F09CF84146F019D8
:100930002246BDE8F04700F095B83A4629463046D1
:1009400000F090F805F5807506F58076641EE4B237
:10095000F3D2B9F1000001D00246D8E7BDE8F08734
:100960002DE9F04387B001212020FFF709FF012185
:100970000805FFF711FFDFF8B89005220721484668
:10098000FFF7FAFD052208214846FFF7F5FD05228D
:1009900009214846FFF7F0FD02258DF8055080201B
:1009A0008DF80450002400908DF806408DF8074023
:1009B00069464846FFF7A4FDE801009069464846AD
:1009C000FFF79EFD2E02694648460096FFF798FD08
:1009D00040274FF0010800978DF80480694648468B
:1009E000FFF78EFD124818300780ADF808404FF42D
:1009F0008270ADF81440ADF80A00ADF80C40ADF8C7
:100A0000164007200B4CADF81080ADF81800ADF87B
:100A10000E50ADF8126002A9204600F044F9012101
:100A20002046FFF70FFF00F007F807B0BDE8F0839E
:100A3000001402400050014070B5094D40242C8044
:100A4000152000F0B7F8FF2000F0B4F8AE1E348097
:100A5000C00704D12C80B72000F0ACF8348070BD02
:100A60001A1402402DE9F04114460F46054600F0E5
:100A7000F3F8144840260680022000F09BF8380E58
:100A800000F098F8C7F3074000F094F8C7F3072088
:100A900000F090F8F8B200F08DF8B000844208D968
:100AA000044609A000F062FB03E0287800F082F819
:100AB0006D1C641EF9D20348801E0680BDE8F0411B
:100AC00000F0AAB81A1402403C3C2D464C41534851
:100AD0002D4552524F522D3E3E205350495F464CB9
:100AE0004153485F50616765577269746520746F40
:100AF0006F206C61726765210A00000010B50B4819
:100B000040240480AB2000F055F8FF2000F052F89C
:100B1000FF2000F04FF8FF2000F04CF8FF2000F01D
:100B200049F80249891E0C8010BD00001A140240C9
:100B300070B50D48402404809F2000F03BF8FF2052
:100B400000F038F80646FF2000F034F80546FF2094
:100B500000F030F801460448801E0480300440EA6A
:100B60000520084370BD00001A14024070B5044609
:100B700000F072F800F050F80D4840250580202064
:100B800000F018F8200E00F015F8C4F3074000F04C
:100B900011F8C4F3072000F00DF8E0B200F00AF8F5
:100BA0000348801E0580BDE8704000F035B80000A5
:100BB0001A1402402DE9F041154C4FF480550746B8
:100BC0002560144E03E02068411E216010D30221ED
:100BD000304600F05DF80028F5D03946304600F088
:100BE00060F8256009E02168481E206005D20120D8
:100BF00000F076F8C0B2BDE8F0810121304600F087
:100C000047F80028EFD0304600F049F8F2E700003E
:100C1000780000200050014070B50D484025058047
:100C20000520FFF7C7FF0B4CA8012060FF20FFF74E
:100C3000C1FF21684A1E226004D2BDE87040042032
:100C400000F04EB8C007F1D10148801E058070BD8C
:100C50001A1402407800002010B505484024048092
:100C60000620FFF7A7FF0248801E048010BD000089
:100C70001A14024010B5054840240480B920FFF73B
:100C800099FF0248801E048010BD00001A14024023
:100C90000246002012890A4200D001207047808954
:100CA00070478181704730B502884C8802F4415307
:100CB0000A88CD8822438C882C4322430C89224306
:100CC0004C8922438C892243CC8922431A430280D7
:100CD000828B22F400628283098A018230BD000087
:100CE00010B5014602A000F041FA002010BD00003E
:100CF0003C3C2D464C4153482D4552524F522D3EBF
:100D00003E2053504920B5C8B4FDB3ACCAB12165EB
:100D100072726F72436F6465203D2025640A000083
:100D20002DE9F047FFF7EAFEDFF8AC904C46C9F832
:100D30001000142000F0BCFFFFF7FAFE606122698A
:100D4000616926A000F012FA6069334C3149E6145B
:100D5000A71C4FF480654FF48058884236D12FA0ED
:100D600000F004FA0020FFF701FF3822002109F10A
:100D70001800FFF799FD09F1180130A000F0F6F90D
:100D8000382200213348FFF767FD324932A000F0D6
:100D9000EDF938222F4909F11800FFF73DFB89F8DA
:100DA000000099F8000001280AD03D802680A4F8B0
:100DB00000802FA000F0DAF9BDE8F047FFF75ABF36
:100DC00025803E80A4F8008032A0F3E73D80268095
:100DD000A4F8008038A0EDE7240000200D0A466C3E
:100DE000617368494420697320307825582C20208D
:100DF0004D616E75666163747572657220446576C7
:100E000069636520494420697320307825580D0AAC
:100E1000000000001940EF00181C02400D0ABCEC55
:100E2000B2E2B5BD53504920464C41534820573299
:100E3000355132353620210D0A0000000D0AD0B49C
:100E4000C8EBB5C4CAFDBEDDCEAAA3BA0D0A257390
:100E500000000000E00000200D0AB6C1B3F6B5C4E2
:100E6000CAFDBEDDCEAAA3BA0D0A2573000000009C
:100E70000D0A31364DB4AED0D0666C617368285718
:100E800032355131323829B2E2CAD4CAA7B0DC2196
:100E90000A0D00000D0A31364DB4AED0D0666C613B
:100EA0007368285732355131323829B2E2CAD4B387
:100EB000C9B9A6210A0D00000D0ABBF1C8A1B2BB39
:100EC000B5BD2057323551313238204944210A0D01
:100ED000000000001CB500212E4A0091019110680D
:100EE00040F4803010604FF4A043106800F40030EC
:100EF00001900098401C0090019810B90098984209
:100F0000F3D11068800342D5012001902148403080
:100F1000016841F0805101601F49086840F4404079
:100F200008601C48083003680360036843F400430A
:100F30000360036843F4A0530360041F174B23604E
:100F4000136843F08073136013689B01FCD50A6833
:100F500042F480320A604A68D203FCD50A6842F43F
:100F600000320A604A689203FCD50D4A40F20571CE
:100F70001160016821F003010160016841F0020184
:100F800001600168C1F381010229FAD11CBD019100
:100F90001CBD00000038024000700040195A400794
:100FA000003C024010B501F047F9012803D0BDE82C
:100FB000104001F0FFB810BD124810B5016841F4AF
:100FC000700101601048016841F0010101600E4AA2
:100FD00000210832116002680C4B1A400260031DA8
:100FE0000B4A1A60026822F48022026006480C3024
:100FF0000160FFF76FFF03494FF000608039086020
:1010000010BD000088ED00E000380240FFFFF6FE52
:101010001030002407A000F0A9F8FFF781FE0F4C64
:101020004FF47A75206880F480612160284600F0D2
:101030003FFEF7E70D0AD5E2CAC7D2BBB8F6313694
:101040004DB4AED0D0666C617368285732355131DB
:10105000323829CAB5D1E9200D0A0000141C02401B
:101060000029818902D041F4005101E021F40051AE
:10107000818170470246002012880A4200D0012078
:10108000704710B5C1F3421301F01F040121A140C4
:10109000012B07D0022B07D01430002A026805D09C
:1010A0000A4304E00C30F8E71030F6E78A430260A8
:1010B00010BD00007FB50446008A0D46C98820F4A3
:1010C000405001432182A08941F20C618843A988E4
:1010D0002A8911436A8902431143A181A08A20F41D
:1010E0004071A8890843A0826846FFF761FB1A484F
:1010F000844202D01948844201D1039800E002984A
:10110000A189090400EBC00101EB0010296801D599
:10111000490000E08900B0FBF1F06422B0FBF2F17D
:1011200009010B096FF018056B4300EB8300A389DD
:101130001D044FF0320306D503EBC000B0FBF2F004
:1011400000F0070005E003EB0010B0FBF2F000F048
:101150000F00084320817FBD0010014000140140B2
:10116000C1F3080181807047FEE700000FB4054B12
:1011700010B503A9044A029800F018F810BC5DF8F5
:1011800014FB00006D140008DC00002002E008C819
:10119000121F08C1002AFAD170477047002001E0F1
:1011A00001C1121F002AFBD1704700002DE9FF4F3B
:1011B0008DB09B460F460446002606E025280BD03E
:1011C0005A460F999047641C761C20780028F5D168
:1011D00011B03046BDE8F08F0025A846012298499D
:1011E00000E0054314F8013F203B02FA03F00842F7
:1011F000F7D120782E2817D114F8010F45F00405F7
:101200002A280ED06FF02F022078A0F13001092992
:101210000AD808EB880102EB410100EB0108641CCD
:10122000F2E757F8048B641C20786C280DD004DC9E
:101230004C2812D06A2811D104E074280DD07A28E5
:101240000CD10AE045F4001507E0617845F48015FB
:10125000814202D1641C05F58015641C2078692840
:1012600044D008DC0028B3D0582867D063280FD0BA
:10127000642808D13AE0702865D0732812D0752808
:101280005AD078285AD05A460F999047761CD5E004
:1012900017F8040B8DF8000000208DF80100E946D6
:1012A000012003E057F8049B4FF0FF3069074FF02F
:1012B000000501D40AE06D1C45450DDA8542FADBD4
:1012C00019F805100029F6D106E06D1C8542FCDBFB
:1012D00019F805100029F8D12E4404E019F8010B83
:1012E0005A460F9990476D1EF8D2A7E00A200021B8
:1012F000CDE90801C5F3025002280CD001CFC11777
:10130000021E71F100020CDA0023D0EB030063EB44
:1013100001012D2208E0FF1D27F00707F7E8020171
:10132000EEE72A0504D52B228DF8282001223CE087
:10133000EA073AD02022F7E70A2000E01020002137
:10134000CDE9080107E01020002145F00405CDE9B2
:1013500008014FF00808C5F30250022810D001CF51
:1013600000214FF0000A2A0720D52278702A0DD0DC
:10137000DDE908C38CF0100C5CEA030C0CD015E01E
:10138000FF1D27F00707F7E80201EAE740228DF882
:1013900028204FF0010A0CE050EA010306D0302368
:1013A0008DF828308DF82920022292462278582A7A
:1013B00004D024A20DF120090B9209E026A2F9E73E
:1013C000DDE90823FEF76CFF0B9B9B5C09F8013DF0
:1013D00050EA0102F4D1ADEB090020300890680713
:1013E00001D44FF001080899884503DD0898A8EB5F
:1013F000000000E000208046002506E00AA85A46CA
:10140000405D0F9990476D1C761C5545F6DB04E056
:1014100030205A460F999047761CB8F10001A8F188
:101420000108F5DC05E019F8010B5A460F999047C1
:10143000761C0899481E08900029F4DC641CC4E658
:10144000092801003031323334353637383961629A
:10145000636465660000000030313233343536375E
:1014600038394142434445460000000070B5074DFD
:101470000446C1B22846FFF773FE80212846FFF7D5
:10148000F9FD0028F9D0204670BD00000010014091
:101490001CB54FF44070FFF769F9FFF705F9FEF747
:1014A000CDFFFFF7D3F8FFF75BFA0CA0FFF75EFE66
:1014B00018A0FFF75BFE20490120CDE900014202A0
:1014C00000231EA1214800F08BFE012802D04FF01E
:1014D000FF301CBD00F0E4FCFEE70000D5E2CAC707
:1014E000D2BBB8F65BD2B0BBF05D2D53544D333256
:1014F000C8ABCFB5C1D0BFAAB7A2B0E52D467265C3
:101500006552544F53B9CCBCFEBFE2C0FDB3CCA36F
:10151000A10A0A00B0B4CFC24B455931B9D2C6F0C6
:10152000C8CECEF1A3ACB0B4CFC24B455932BBD676
:10153000B8B4C8CECEF10A00280000204170705423
:1015400061736B4372656174650000006903000894
:101550002DE9F041184E0F460446F5683068001D2D
:1015600000F096FA38B9306890F82C1001208840C5
:10157000316981433161601C07D137B13168BDE801
:10158000F0410E48091D00F0BBBA30682C44AC4253
:101590004460316805D2B06BBDE8F041091D00F030
:1015A00097BA706B091D00F093FAB06A844200D2BA
:1015B000B462BDE8F08100007C000020E803002058
:1015C0002DE9F041054600F0A7FA2D4EB068401C09
:1015D000B06030682B4F10B1706930B32BE03560CC
:1015E000B068012827D1002404EB840007EB8000B9
:1015F00000F060FA641C202CF6D3234800F05AFA5D
:101600002148143000F056FA1F48283000F052FAF2
:101610001D483C3000F04EFA1B48503000F04AFAAA
:10162000194870631430B06305E03068E96AC06A35
:10163000884200D83560706A0121401C7062E86AF7
:10164000326981401143316100EB800007EB80007B
:10165000291D00F055FA00F09BFA706900280CD0A3
:101660003068E96AC06A884207D208494FF0805062
:101670000860BFF34F8FBFF36F8FBDE8F0810000AC
:101680007C000020180100209803002004ED00E0F9
:1016900070B5124E124D1CE000F0B8FC306820B15D
:1016A000002400F04FFEA4B901E00124F9E700F0A6
:1016B00033FAF068C468201D00F0EAF9A868401EFB
:1016C000A8606868401E686000F062FA204600F07A
:1016D00009F868680028DFD170BD0000D40300203D
:1016E0007C00002010B50446006B00F083FA204611
:1016F000BDE8104000F07EBA10484FF41041420798
:1017000006D0C01D0D4920F00700411AC1F5104157
:101710000B4A00230144C2E900030839103A21F0C2
:10172000070111604B600B600B1AC0E90013936056
:101730004FF000405360D06070470000FC03002071
:10174000C8000020074E4FF08054074DFFF7A0FF60
:1017500030680128FAD92C60BFF34F8FBFF36F8F29
:10176000F4E700001801002004ED00E02DE9F04747
:10177000DDE909840E4682466FF00301206B01EB20
:1017800082010844089D20F007079946780705D094
:1017900040F22B3218A11FA0FFF7E8FC002022180E
:1017A000315C82F83410315C11B1401C1028F6D342
:1017B000002684F84360202D00D31F25201DE562FC
:1017C00000F083F904F1180000F07FF92461C5F1FD
:1017D00020006462A061666484F848604A4651460D
:1017E000384600F03FF92060B8F1000F01D0C8F88A
:1017F0000040BDE8F08700002E2E5C2E2E5C467265
:10180000656552544F535C7372635C7461736B73A0
:101810002E6300004572726F723A25732C25640D99
:101820000A00000030B5114900E011460A68824202
:10183000FBD34B685C18844203D14068184448606D
:10184000084643681C18944209D1084C103C24688F
:10185000A24209D052681A4442600A6812680260C3
:10186000814200D0086030BD0460F9E7C800002064
:101870000648416B096829B1416BC968C968496864
:10188000816270474FF0FF31FAE700007C000020D2
:1018900008484068401C05D040F20F1206A111A074
:1018A000FFF764FC502080F31188BFF34F8FBFF324
:1018B0006F8FFEE7D00000202E2E5C2E2E5C46722D
:1018C000656552544F535C706F72745C525644534A
:1018D0005C41524D5F434D34465C706F72742E63B1
:1018E000000000004572726F723A25732C25640D5A
:1018F0000A00000070B50025040005D140F28162A5
:1019000007A10EA0FFF732FC10496069884205D19B
:10191000A06A2839884201D000B90125284670BD47
:101920002E2E5C2E2E5C4672656552544F535C73AE
:1019300072635C7461736B732E6300004572726F27
:10194000723A25732C25640D0A000000E80300207C
:101950002DE9F0410546002600F058FB324F38686B
:1019600008B9FFF7C9FEF86805424FD1002D4DD0E8
:10197000083568070BD005F00700C0F108000544E2
:10198000680704D0BF2229A132A0FFF7EFFB002D8A
:101990003CD07868854239D823491031084604681C
:1019A00001E0214604466068A84202D2206800286F
:1019B000F7D13868B846844228D00E68206808609D
:1019C00060680836401B10280ED96719780704D0C4
:1019D000EC2216A11FA0FFF7C9FB6068401B7860CE
:1019E00038466560FFF71EFF6168D8F8040042467C
:1019F000401AC8F80400D8F80830984200D2906025
:101A0000D8F80C0001430020C4E9000100F09AFC62
:101A1000700705D04FF4967204A10EA0FFF7A6FB45
:101A20003046BDE8F0810000B80000202E2E5C2E6C
:101A30002E5C4672656552544F535C706F72745CD5
:101A40004D656D4D616E675C686561705F342E63D6
:101A5000000000004572726F723A25732C25640DE8
:101A60000A00000010B5031F4FF080741C601B1F9C
:101A700021F001011960191F044B0B6014390A6031
:101A8000091F6FF0020244380A6010BD9118000867
:101A9000D0E9013201699A60D0E901235A604A68AD
:101AA000824201D182684A60002202610868401EB9
:101AB0000860704700F108014FF0FF32C0E90112E1
:101AC000C160016100210160704700210161704720
:101AD00030B50C68621C02D000F1080202E0026915
:101AE00004E01A4653681D68A542FAD953684B6052
:101AF00099608A60516008610168491C016030BDCD
:101B000042684A6093688B6093685960916008618D
:101B10000168491C01607047502080F31188BFF3B1
:101B20004F8FBFF36F8F09494868401C48600128F8
:101B30000AD10748006810F0FF0F05D040F2B91233
:101B400004A10FA0FFF712BB70470000D0000020D7
:101B500004ED00E02E2E5C2E2E5C4672656552541C
:101B60004F535C706F72745C525644535C41524DDB
:101B70005F434D34465C706F72742E63000000004A
:101B80004572726F723A25732C25640D0A000000AD
:101B900010B5084C606828B94FF4E07206A111A096
:101BA000FFF7E4FA6068401E606001D180F311889D
:101BB00010BD0000D00000202E2E5C2E2E5C467240
:101BC000656552544F535C706F72745C5256445347
:101BD0005C41524D5F434D34465C706F72742E63AE
:101BE000000000004572726F723A25732C25640D57
:101BF0000A00000070B500282AD0164DA0F1080494
:101C00006068E968084205D14FF4A07212A11CA0D7
:101C1000FFF7ACFA206828B140F241120EA118A0DB
:101C2000FFF7A4FA6068E968084211D02268002A28
:101C30000ED18843606000F0E9F960686968084483
:101C400068602046FFF7EEFDBDE8704000F07ABB0B
:101C500070BD0000B80000202E2E5C2E2E5C467257
:101C6000656552544F535C706F72745C4D656D4D79
:101C7000616E675C686561705F342E630000000010
:101C80004572726F723A25732C25640D0A000000AC
:101C900006484FF47A710068B0FBF1F14FF0E02094
:101CA000491E4161072101617047000000000020CA
:101CB00010B5040012D00E49096B29B140F2CF4291
:101CC0000CA113A0FFF752FA00F0A0F90021204662
:101CD000FFF73EFC00F036FB002807D110494FF01B
:101CE00080500860BFF34F8FBFF36F8F10BD0000AF
:101CF0007C0000202E2E5C2E2E5C467265655254B0
:101D00004F535C7372635C7461736B732E6300007A
:101D10004572726F723A25732C25640D0A0000001B
:101D200004ED00E070B50446FFF7F6FE234D04B95C
:101D30002C68201DFFF7ACFE58B9E06A204A00EB82
:101D4000800152F8211021B901218140286988437E
:101D50002861A06A18B104F11800FFF799FE686ABB
:101D6000401C68622868844207D1211D1548FFF78E
:101D7000C7FE6868401C686007E0A868401EA8604D
:101D80002046FFF7AFFCFFF773FDFFF701FF68691F
:101D9000002812D0286884420FD1286B28B140F265
:101DA000654209A10FA0FFF7E1F912494FF08050F9
:101DB0000860BFF34F8FBFF36F8F70BD7C000020B2
:101DC00018010020D40300202E2E5C2E2E5C4672BB
:101DD000656552544F535C7372635C7461736B73CB
:101DE0002E6300004572726F723A25732C25640DC4
:101DF0000A00000004ED00E070B504002BD01A4D7D
:101E0000286884422FD0FFF787FE2046FFF772FD37
:101E1000E8B1201DFFF73CFEE06A01212A698140FC
:101E200011432961114900EB800001EB8000211D65
:101E3000FFF766FEE06A2968C96A884207D30C4941
:101E40004FF080500860BFF34F8FBFF36F8FBDE836
:101E50007040FFF79DBEBDE8704040F2AB6205A147
:101E60000BA0FFF783B970BD7C0000201801002093
:101E700004ED00E02E2E5C2E2E5C467265655254F9
:101E80004F535C7372635C7461736B732E630000F9
:101E90004572726F723A25732C25640D0A0000009A
:101EA0001CB515480024CDE900402346802213A12B
:101EB000144800F095F901280AD0401C1BD102B04B
:101EC00040F28472BDE810400FA116A0FFF74EB992
:101ED000502080F31188BFF34F8FBFF36F8F0648F8
:101EE0004FF0FF312C38816201214161C460BDE8AF
:101EF0001C4000F0D5B81CBDA800002049444C454A
:101F000000000000451700082E2E5C2E2E5C467245
:101F1000656552544F535C7372635C7461736B7389
:101F20002E6300004572726F723A25732C25640D82
:101F30000A00000070B50446FFF7EEFD244D04B919
:101F40002C68201DFFF7A4FD58B9E06A214A00EB78
:101F5000800152F8211021B901218140286988436C
:101F60002861A06A18B104F11800FFF791FD211D46
:101F70001948FFF7C5FDFFF70BFE686928B1FFF7A9
:101F8000CBFDFFF775FCFFF703FE2868844211D1F3
:101F9000686980B1286B28B140F257620FA116A082
:101FA000FFF7E4F818494FF080500860BFF34F8FF7
:101FB000BFF36F8F70BD0848A9680068884202D1DE
:101FC0000020286070BDBDE8704000F027B8000018
:101FD0007C00002018010020E80300202E2E5C2E3B
:101FE0002E5C4672656552544F535C7372635C7429
:101FF00061736B732E6300004572726F723A2573C2
:102000002C25640D0A00000004ED00E00248016B7D
:10201000491C0163704700007C00002070B5134D1F
:10202000286B10B10120E86170BD0020E8612869CB
:102030000F4EB0FA80F0C0F11F0000EB800456F89C
:10204000240028B940F6F6220AA111A0FFF78EF865
:1020500006EB840000F10802416849684160914242
:1020600001D149684160C868286070BD7C000020CB
:10207000180100202E2E5C2E2E5C4672656552548F
:102080004F535C7372635C7461736B732E630000F7
:102090004572726F723A25732C25640D0A00000098
:1020A0001CB5304C20683049884205D140F25912A5
:1020B0002EA139A0FFF75AF820682B49491E884203
:1020C00005D14FF4AD7229A133A0FFF74FF8364C7C
:1020D00020780190FF20207020788DF800009DF876
:1020E00000009DF8001000F0F000884205D040F29A
:1020F00073121EA128A0FFF739F89DF800002B4AA3
:1021000000F0500010700720906007E09068401EBB
:1021100090609DF8000040008DF800009DF80000E0
:102120000006F3D4107A000200F4E0609060019899
:1021300020700C482030016841F470010160016892
:1021400041F070410160FFF7A3FD00205060FEF7F1
:1021500059F81748016841F040410160FEF742F824
:1021600000201CBD00ED00E071C20F412E2E5C2E40
:102170002E5C4672656552544F535C706F72745C8E
:10218000525644535C41524D5F434D34465C706F30
:1021900072742E63000000004572726F723A2573EC
:1021A0002C25640D0A00000000E400E0D0000020AF
:1021B00034EF00E010B5502080F31188BFF34F8F4B
:1021C000BFF36F8F00F046F818B104494FF080500C
:1021D0000860002080F3118810BD000004ED00E0CD
:1021E0002DE9FF5F8346DDE90E87994616468A464C
:1021F0009000FFF7ADFB05001AD04C20FFF7A8FBBD
:10220000040012D025630021CDE90241CDE9008709
:102210004B46324651465846FFF7A8FA2046FFF78C
:10222000CFF9012004B0BDE8F09F2846FFF7E2FC9B
:102230004FF0FF30F6E700000548416919B1006B27
:1022400018B100207047012070470220704700003D
:102250007C0000202DE9F0412D4F0026386B40B165
:10226000B869401CB861F86900B101263046BDE884
:10227000F081FD686D1CFD6011D1786B006828B19C
:1022800040F6D91223A12AA0FEF770FF786BB96B34
:102290007963B863386A401C3862FFF7E9FAB86AB4
:1022A000DFF89C80854209D3786B006880B1786B39
:1022B000C068C468606885420DD2B8623868C06A78
:1022C00000EB800158F821000128CCD90126CAE78B
:1022D0004FF0FF30F1E7201DFFF7DAFBA06A18B1DD
:1022E00004F11800FFF7D4FBE06A01213A6981404C
:1022F0001143396100EB800108EB8100211DFFF7DC
:10230000FFFBE06A3968C96A8842CDD30126CBE772
:102310007C0000202E2E5C2E2E5C46726565525489
:102320004F535C7372635C7461736B732E63000054
:102330004572726F723A25732C25640D0A000000F5
:10234000180100202DE9F0472B4D00242746286B6B
:1023500028B94FF4FD6229A12FA0FEF707FFFFF770
:10236000DBFB286B401E2863286BE8BBA8682E495E
:102370000126C8B3A1F52A798846D8F80010E9B13A
:10238000D8F80C00C46804F11800FFF781FB201D89
:10239000FFF77EFBE06A2A6906FA00F11143296122
:1023A00000EB800109EB8100211DFFF7A9FBE06A2A
:1023B0002968C96A8842E0D3EE61DEE70CB1FFF715
:1023C00057FAAC693CB1FFF745FF00B1EE61641EFE
:1023D000F9D10020A861E86930B114490127380714
:1023E0000860BFF34F8F00E001E0BFF36F8FFFF78E
:1023F000CFFB3846BDE8F0877C0000202E2E5C2EF7
:102400002E5C4672656552544F535C7372635C7404
:1024100061736B732E6300004572726F723A25739D
:102420002C25640D0A000000C003002004ED00E02C
:102430005024000800000020E00000008C1100087B
:1024400030250008E0000020209700009C110008C3
:102450000095BA0A00000000000000000102030419
:10246000060708090000000001020304010203043A
:10247000060708090000000000000000000000003E
:10248000000000000000000000000000B8D0D0BB39
:10249000C4FAD1A1D3C3B1FCBBF073746D3332BFA6
:1024A000AAB7A2B0E50D0A68747470733A2F2F664C
:1024B0006972652D73746D33322E74616F62616F52
:1024C0002E636F6D0000000000A0000000000000FF
:1024D00000000000000000000000000000000000FC
:1024E00000000000000000000000000000000000EC
:1024F00000000000000000000000000000000000DC
:1025000000000000000000000000000000000000CB
:1025100000000000000000000000000000000000BB
:1025200000000000AAAAAAAA000000000000000003
:04000005080001AD41
:00000001FF
