:020000040800F2
:10000000789700207D0200088B0600080B05000889
:10001000890600089D030008110A0008000000007E
:10002000000000000000000000000000C501000802
:100030009F0300080000000019020008990800084A
:10004000970200089702000897020008970200082C
:10005000970200089702000897020008970200081C
:10006000970200089702000897020008970200080C
:1000700097020008970200089702000897020008FC
:1000800097020008970200089702000897020008EC
:1000900097020008970200089702000897020008DC
:1000A00097020008970200089702000897020008CC
:1000B00097020008970200089702000897020008BC
:1000C00097020008970200089702000897020008AC
:1000D000970200089702000897020008970200089C
:1000E000970200089702000897020008970200088C
:1000F000970200089702000897020008970200087C
:10010000970200089702000897020008970200086B
:10011000970200089702000897020008970200085B
:10012000970200089702000897020008970200084B
:10013000970200089702000897020008970200083B
:10014000970200089702000897020008970200082B
:10015000970200089702000897020008970200081B
:10016000970200089702000897020008970200080B
:1001700097020008970200089702000897020008FB
:1001800097020008970200089702000897020008EB
:1001900097020008970200089702000897020008DB
:1001A000970200089702000897020008DFF810D0B5
:1001B00000F08CF800480047310C0008AFF30080D5
:1001C000789700202A4B19680868B0E8F04F80F350
:1001D0000988BFF36F8F4FF0000080F311887047DC
:1001E0000000000006480068006880F3088862B6D6
:1001F00061B6BFF34F8FBFF36F8F00DF00BF00BF4B
:1002000008ED00E0DFF80C00016841F470010160C6
:10021000704700BF88ED00E0EFF30980BFF36F8FF8
:10022000134B1A681EF0100F08BF20ED108A20E94A
:10023000F04F106008B44FF0500080F31188BFF306
:100240004F8FBFF36F8F01F0AFF94FF0000080F3D5
:10025000118808BC19680868B0E8F04F1EF0100F4C
:1002600008BFB0EC108A80F30988BFF36F8F704726
:1002700030000020EFF305807047000006488047FB
:1002800006480047FEE7FEE7FEE7FEE7FEE7FEE77B
:10029000FEE7FEE7FEE7FEE7AD080008AD01000857
:1002A00030B50B46014600202022012409E021FA46
:1002B00002F59D4205D303FA02F5491B04FA02F543
:1002C0002844151EA2F10102F1DC30BD064C074D99
:1002D00006E0E06840F0010394E807009847103416
:1002E000AC42F6D3FFF766FF7C1B00089C1B00089E
:1002F0001CB500F097FF022013490402CDE900016C
:100300000023224611A1144801F030FA012802D13D
:1003100012A000F07FFB0C490320091DCDE900016C
:100320000023224613A1164801F020FA012802D129
:1003300014A000F06FFB0448001F006801F078F87B
:10034000BDE81C4000F0AABF280000204C45445FD7
:100350005461736B0000000039060008B4B4BDA8F6
:100360004C45445F5461736BC8CECEF1B3C9B9A696
:10037000210D0A004B45595F5461736B000000006A
:100380000D050008B4B4BDA84B45595F5461736BAB
:10039000C8CECEF1B3C9B9A6210A0000FEE7704766
:1003A000F0B5012187B0084600F0ACF9012110201A
:1003B00000F0B4F9012500248DF806408DF80750AF
:1003C00002266802254F8DF8056000908DF80460C4
:1003D0006946384600F046F8A80200908DF804609F
:1003E0006946384600F03EF807220A21384600F0F8
:1003F00075F807220921384600F070F84FF4E13013
:10040000ADF80C400290ADF80E40ADF81040ADF8DC
:1004100014400C20124CADF8120002A9204600F046
:100420009DFA4FF4A06000F063F925208DF81800C4
:100430008DF819508DF81A508DF81B5006A800F051
:1004400025F9012240F22551204600F06EFA0121E3
:10045000204600F059FA07B0F0BD0000000002404D
:1004600000100140F0B5002201274FF0030C0B688B
:1004700007FA02F52B40AB422CD1066853000CFA68
:1004800003F4A64306600E79D0F800E09E4046EAE9
:100490000E0606600E79012E01D0022E12D186685A
:1004A000A64386604E79D0F808E09E4046EA0E06E4
:1004B00086604668AE43466045688E799640B6B21F
:1004C00035434560C568A543C560CC799C40C36889
:1004D0001C43C460521C102AC9D3F0BD4B07DB0E6D
:1004E0009A40C90810B500EB8100016A0F249C40B6
:1004F000A1430162016A1143016210BD024600205E
:1005000012690A4200D001207047FEE7134D144FD4
:10051000144C4FF400560121284600F04DF80128F4
:1005200008D111A000F076FA01220023114660687C
:1005300001F048F93146384600F03EF8012808D16C
:100540000CA000F067FA002301220221606801F08C
:1005500039F9142000F032FFDDE70000000002400E
:1005600000080240240000204B455931B1BBB0B413
:10057000CFC20A004B455932B1BBB0B4CFC20A005A
:100580001CB50121052000F0BDF8012000900020DD
:100590008DF80400074C8DF8070069462046FFF7E8
:1005A00061FF4FF40051009169462046FFF75AFF62
:1005B0001CBD00000008024070B50C460546FFF760
:1005C0009DFF012801D0002070BD21462846FFF77D
:1005D00095FF0128F9D0012070BD00002DE9FC41F4
:1005E0000121802000F08EF801208DF80400002108
:1005F0008DF806108DF807000E4F4FF480648DF8CB
:100600000510009469463846FFF72CFF65006946DF
:1006100038460095FFF726FFA60069463846009643
:10062000FFF720FF03481830048005800680BDE8EE
:10063000FC810000001C024008B500200C4E04465E
:10064000451E009029462B466A46002001F0B8F965
:100650000128F7D12046009C20430328F2D1002432
:1006600004A000F0D7F9306880F480603060E9E7DA
:10067000141C02404B657931D3EB4B657932B6BC23
:10068000B0B4CFC20A000000FEE7704730B50F23B8
:10069000C27801780125FAB1144A126801F1E0210B
:1006A00002F4E062C2F5E062C2F30722C2F1040480
:1006B000D3404278A24084781C401443220181F840
:1006C0000024007800F01F018D404009800000F1F7
:1006D000E020C0F8005130BD01F01F0085404809FE
:1006E000800000F1E020C0F8805130BD0CED00E04A
:1006F0000249084302490860704700000000FA05FB
:100700000CED00E0044A0029116801D0014300E02B
:10071000814311607047000030380240044A0029CC
:10072000116801D0014300E081431160704700006F
:100730004438024070B5204B1968204C11F00C0170
:1007400004D01F4E042903D0082903D004601BE005
:10075000066019E0184A121F1168C1F3805511682C
:1007600001F03F0115B1B6FBF1F101E0B4FBF1F18D
:1007700014681268C4F388146143C2F30142521C26
:100780005200B1FBF2F1016019680F2202EA111167
:100790000C4A545C0168E14041601C68072505EA89
:1007A0009424145D21FA04F484601B6805EA533331
:1007B000D25CD140C16070BD083802400024F40012
:1007C00040787D01140000201CB500212E4A0091C4
:1007D0000191106840F4803010604FF4A04310681D
:1007E00000F4003001900098401C0090019810B96E
:1007F00000989842F3D11068800342D501200190FF
:1008000021484030016841F0805101601F4908686B
:1008100040F4404008601C480830036803600368E7
:1008200043F400430360036843F4A0530360041FD0
:10083000174B2360136843F08073136013689B01A8
:10084000FCD50A6842F480320A604A68D203FCD5BB
:100850000A6842F400320A604A689203FCD50D4AE5
:1008600040F205711160016821F003010160016827
:1008700041F0020101600168C1F381010229FAD14E
:100880001CBD01911CBD00000038024000700040FA
:10089000195A4007003C024010B501F00BF801283E
:1008A00003D0BDE8104000F04BBF10BD124810B59A
:1008B000016841F4700101601048016841F00101D4
:1008C00001600E4A00210832116002680C4B1A4088
:1008D0000260031D0B4A1A60026822F48022026043
:1008E00006480C300160FFF76FFF03494FF00060CE
:1008F0008039086010BD000088ED00E0003802403B
:10090000FFFFF6FE103000240029818902D041F457
:10091000005101E021F4005181817047024600201E
:1009200012880A4200D00120704710B5C1F342136B
:1009300001F01F040121A140012B07D0022B07D099
:100940001430002A026805D00A4304E00C30F8E7AE
:100950001030F6E78A43026010BD00007FB5044600
:10096000008A0D46C98820F4405001432182A089A5
:1009700041F20C618843A9882A8911436A8902439C
:100980001143A181A08A20F44071A8890843A08264
:100990006846FFF7CFFE1A48844202D019488442C5
:1009A00001D1039800E00298A189090400EBC0017D
:1009B00001EB0010296801D5490000E08900B0FB77
:1009C000F1F06422B0FBF2F109010B096FF0180598
:1009D0006B4300EB8300A3891D044FF0320306D55F
:1009E00003EBC000B0FBF2F000F0070005E003EB02
:1009F0000010B0FBF2F000F00F00084320817FBD33
:100A00000010014000140140C1F3080181807047CB
:100A1000FEE700000FB4054B10B503A9044A029885
:100A200000F018F810BC5DF814FB00000D0C000875
:100A30009000002002E008C8121F08C1002AFAD165
:100A400070477047002001E001C1121F002AFBD14E
:100A5000704700002DE9FF4F8BB09A460F460546C0
:100A6000002606E025280BD052460D9990476D1CB4
:100A7000761C28780028F5D10FB03046BDE8F08FFD
:100A80000024A0460122604900E0044315F8013F1C
:100A9000203B02FA03F00842F7D128782E2817D11C
:100AA00015F8010F44F004042A280ED06FF02F022D
:100AB0002878A0F1300109290AD808EB880102EB57
:100AC000410100EB01086D1CF2E757F8048B6D1C27
:100AD000287869283ED006DC0028CDD063280BD0CA
:100AE000642804D136E0732810D075284BD05246C4
:100AF0000D999047761C85E017F8040B8DF80000DF
:100B000000208DF80100E946012003E057F8049B1E
:100B10004FF0FF3061074FF0000401D40AE0641C7D
:100B200044450DDA8442FADB19F804100029F6D1A5
:100B300006E0641C8442FCDB19F804100029F8D19B
:100B4000264404E019F8010B52460D999047641EA3
:100B5000F8D257E001CF4FF00A0B002802DA4042EA
:100B60002D2102E0210504D52B218DF8241001212F
:100B700003E0E10705D02021F7E70DF120090891F6
:100B80000CE00021F9E701CF4FF00A0BF9E75946D5
:100B9000FFF786FB01F1300209F8012D0028F6D19C
:100BA000ADEB090000F1200B600701D44FF0010804
:100BB000D84502DDA8EB0B0000E0002080460024B1
:100BC00006E009A85246005D0D999047641C761C0A
:100BD00008988442F5DB04E0302052460D99904796
:100BE000761CB8F10001A8F10108F5DC05E019F860
:100BF000010B52460D999047761CBBF10001ABF1F9
:100C0000010BF4DC6D1C34E70928010070B5074DB9
:100C10000446C1B22846FFF7F7FE80212846FFF7B9
:100C20007DFE0028F9D0204670BD00000010014074
:100C30001CB54FF44070FFF75BFDFFF7CFFCFFF7EB
:100C4000AFFBFFF79DFC0C48FFF7E4FE0BA0FFF79E
:100C5000E1FE13490120CDE900014202002311A168
:100C6000144800F083FD012802D04FF0FF301CBD76
:100C700000F048FCFEE70000381B0008B0B4CFC20B
:100C80004B4559317C4B455932B7A2CBCDC8CECE5E
:100C9000F1CAC2BCFECDA8D6AAA3A10A00000000DA
:100CA000240000204170705461736B43726561745D
:100CB00065000000F10200082DE9F041184E0F46D2
:100CC0000446F5683068001D00F068FA38B93068ED
:100CD00090F82C1001208840316981433161601CFB
:100CE00007D137B13168BDE8F0410E48091D00F069
:100CF0008DBA30682C44AC424460316805D2B06B88
:100D0000BDE8F041091D00F069BA706B091D00F0E3
:100D100065FAB06A844200D2B462BDE8F081000096
:100D200030000020640300202DE9F041054600F06A
:100D300079FA2D4EB068401CB06030682B4F10B16E
:100D4000706930B32BE03560B068012827D10024EA
:100D500004EB840007EB800000F032FA641C202CC6
:100D6000F6D3234800F02CFA2148143000F028FA7A
:100D70001F48283000F024FA1D483C3000F020FACB
:100D80001B48503000F01CFA194870631430B063EF
:100D900005E03068E96AC06A884200D83560706A48
:100DA0000121401C7062E86A32698140114331615F
:100DB00000EB800007EB8000291D00F027FA00F00F
:100DC0006DFA706900280CD03068E96AC06A884200
:100DD00007D208494FF080500860BFF34F8FBFF330
:100DE0006F8FBDE8F08100003000002094000020EB
:100DF0001403002004ED00E070B5124E124D1CE00B
:100E000000F0CAFB306820B1002400F01FFEA4B936
:100E100001E00124F9E700F005FAF068C468201D3C
:100E200000F0BCF9A868401EA8606868401E6860B1
:100E300000F034FA204600F009F868680028DFD195
:100E400070BD0000500300203000002010B50446A3
:100E5000006B00F055FA2046BDE8104000F050BA93
:100E600010484FF41041420706D0C01D0D4920F034
:100E70000700411AC1F510410B4A00230144C2E9A1
:100E800000030839103A21F0070111604B600B6034
:100E90000B1AC0E9001393604FF000405360D0601C
:100EA00070470000780300207C000020074E4FF0C0
:100EB0008054074DFFF7A0FF30680128FAD92C6055
:100EC000BFF34F8FBFF36F8FF4E700009400002053
:100ED00004ED00E02DE9F047DDE909840E46824685
:100EE0006FF00301206B01EB82010844089D20F0A4
:100EF00007079946780705D040F22B3218A11FA0AA
:100F0000FFF788FD00202218315C82F83410315C34
:100F100011B1401C1028F6D3002684F84360202D20
:100F200000D31F25201DE56200F055F904F11800DB
:100F300000F051F92461C5F120006462A06166648B
:100F400084F848604A465146384600F011F920605E
:100F5000B8F1000F01D0C8F80040BDE8F0870000EC
:100F60002E2E5C2E2E5C4672656552544F535C7378
:100F700072635C7461736B732E6300004572726FF1
:100F8000723A25732C25640D0A00000030B5114912
:100F900000E011460A688242FBD34B685C18844229
:100FA00003D1406818444860084643681C189442BE
:100FB00009D1084C103C2468A24209D052681A4456
:100FC00042600A6812680260814200D0086030BD49
:100FD0000460F9E77C0000200648416B096829B1EC
:100FE000416BC968C9684968816270474FF0FF3139
:100FF000FAE700003000002008484068401C05D097
:1010000040F20F1206A111A0FFF704FD502080F35B
:101010001188BFF34F8FBFF36F8FFEE7840000206E
:101020002E2E5C2E2E5C4672656552544F535C70BA
:101030006F72745C525644535C41524D5F434D3461
:10104000465C706F72742E63000000004572726F10
:10105000723A25732C25640D0A0000002DE9F04139
:101060000546002600F098FA324F386808B9FFF7B5
:10107000F7FEF86805424FD1002D4DD008356807BE
:101080000BD005F00700C0F108000544680704D044
:10109000BF2229A132A0FFF7BDFC002D3CD078680B
:1010A000854239D8234910310846046801E02146B9
:1010B00004466068A84202D220680028F7D1386848
:1010C000B846844228D00E682068086060680836F8
:1010D000401B10280ED96719780704D0EC2216A1FE
:1010E0001FA0FFF797FC6068401B7860384665607A
:1010F000FFF74CFF6168D8F804004246401AC8F870
:101100000400D8F80830984200D29060D8F80C005B
:1011100001430020C4E9000100F098FC700705D0ED
:101120004FF4967204A10EA0FFF774FC3046BDE8A0
:10113000F08100006C0000202E2E5C2E2E5C46728A
:10114000656552544F535C706F72745C4D656D4DA4
:10115000616E675C686561705F342E63000000003B
:101160004572726F723A25732C25640D0A000000D7
:1011700010B5031F4FF080741C601B1F21F001018C
:101180001960191F044B0B6014390A60091F6FF0B6
:10119000020244380A6010BDF90F0008D0E901329C
:1011A00001699A60D0E901235A604A68824201D1FC
:1011B00082684A60002202610868401E0860704729
:1011C00000F108014FF0FF32C0E90112C160016176
:1011D00000210160704700210161704730B50C6843
:1011E000621C02D000F1080202E0026904E01A4623
:1011F00053681D68A542FAD953684B6099608A60AC
:10120000516008610168491C016030BD42684A6054
:1012100093688B6093685960916008610168491C0C
:1012200001607047502080F31188BFF34F8FBFF3E8
:101230006F8F09494868401C486001280AD1074857
:10124000006810F0FF0F05D040F2B91204A10FA002
:10125000FFF7E0BB704700008400002004ED00E0D1
:101260002E2E5C2E2E5C4672656552544F535C7078
:101270006F72745C525644535C41524D5F434D341F
:10128000465C706F72742E63000000004572726FCE
:10129000723A25732C25640D0A00000010B5084C25
:1012A000606828B94FF4E07206A111A0FFF7B2FB05
:1012B0006068401E606001D180F3118810BD00009D
:1012C000840000202E2E5C2E2E5C467265655254E2
:1012D0004F535C706F72745C525644535C41524D74
:1012E0005F434D34465C706F72742E6300000000E3
:1012F0004572726F723A25732C25640D0A00000046
:1013000070B500282AD0164DA0F108046068E9687D
:10131000084205D14FF4A07212A11CA0FFF77AFB7E
:10132000206828B140F241120EA118A0FFF772FB0D
:101330006068E968084211D02268002A0ED188430B
:10134000606000F029F960686968084468602046B8
:10135000FFF71CFEBDE8704000F078BB70BD0000D8
:101360006C0000202E2E5C2E2E5C46726565525459
:101370004F535C706F72745C4D656D4D616E675C50
:10138000686561705F342E63000000004572726F03
:10139000723A25732C25640D0A00000006484FF4AC
:1013A0007A710068B0FBF1F14FF0E020491E416115
:1013B00007210161704700000000002010B5040003
:1013C00012D00E49096B29B140F2CF420CA113A0F3
:1013D000FFF720FB00F0E0F800212046FFF76CFC4F
:1013E00000F034FB002807D110494FF0805008600E
:1013F000BFF34F8FBFF36F8F10BD00003000002090
:101400002E2E5C2E2E5C4672656552544F535C73D3
:1014100072635C7461736B732E6300004572726F4C
:10142000723A25732C25640D0A00000004ED00E0DB
:1014300070B50446FFF7F6FE234D04B92C68201D55
:10144000FFF7ACFE58B9E06A204A00EB800152F881
:10145000211021B901218140286988432861A06AAF
:1014600018B104F11800FFF799FE686A401C686221
:101470002868844207D1211D1548FFF7C7FE686818
:10148000401C686007E0A868401EA8602046FFF77F
:10149000DDFCFFF7A1FDFFF701FF6869002812D00E
:1014A000286884420FD1286B28B140F2654209A117
:1014B0000FA0FFF7AFFA12494FF080500860BFF35A
:1014C0004F8FBFF36F8F70BD30000020940000205D
:1014D000500300202E2E5C2E2E5C46726565525401
:1014E0004F535C7372635C7461736B732E630000A3
:1014F0004572726F723A25732C25640D0A00000044
:1015000004ED00E01CB515480024CDE90040234659
:10151000802213A1144800F029F901280AD0401CA8
:101520001BD102B040F28472BDE810400FA116A09A
:10153000FFF770BA502080F31188BFF34F8FBFF3CD
:101540006F8F06484FF0FF312C38816201214161D5
:10155000C460BDE81C4000F069B81CBD5C00002000
:1015600049444C4500000000AD0E00082E2E5C2EB4
:101570002E5C4672656552544F535C7372635C74A3
:1015800061736B732E6300004572726F723A25733C
:101590002C25640D0A0000000248016B491C016300
:1015A000704700003000002070B5134D286B10B15B
:1015B0000120E86170BD0020E86128690F4EB0FA93
:1015C00080F0C0F11F0000EB800456F8240028B919
:1015D00040F6F6220AA111A0FFF71CFA06EB8400E0
:1015E00000F10802416849684160914201D14968AF
:1015F0004160C868286070BD300000209400002061
:101600002E2E5C2E2E5C4672656552544F535C73D1
:1016100072635C7461736B732E6300004572726F4A
:10162000723A25732C25640D0A0000001CB5304C5D
:1016300020683049884205D140F259122EA139A0C4
:10164000FFF7E8F920682B49491E884205D14FF47D
:10165000AD7229A133A0FFF7DDF9364C2078019057
:10166000FF20207020788DF800009DF800009DF884
:10167000001000F0F000884205D040F273121EA165
:1016800028A0FFF7C7F99DF800002B4A00F0500092
:1016900010700720906007E09068401E90609DF8F1
:1016A000000040008DF800009DF800000006F3D413
:1016B000107A000200F4E0609060019820700C48FD
:1016C0002030016841F470010160016841F070410F
:1016D0000160FFF763FE00205060FEF793FD17489E
:1016E000016841F040410160FEF77CFD00201CBD17
:1016F00000ED00E071C20F412E2E5C2E2E5C467272
:10170000656552544F535C706F72745C525644530B
:101710005C41524D5F434D34465C706F72742E6372
:10172000000000004572726F723A25732C25640D1B
:101730000A00000000E400E08400002034EF00E034
:1017400010B5502080F31188BFF34F8FBFF36F8F18
:1017500000F0BEF818B104494FF080500860002036
:1017600080F3118810BD000004ED00E02DE9FF5F5B
:101770008346DDE90E87994616468A469000FFF7B4
:101780006DFC05001AD04C20FFF768FC040012D055
:1017900025630021CDE90241CDE900874B46324661
:1017A00051465846FFF796FB2046FFF7BDFA012049
:1017B00004B0BDE8F09F2846FFF7A2FD4FF0FF30D0
:1017C000F6E700002DE9F0411F4690460D46040063
:1017D0004FF0010605D141F2FD0228A12EA0FFF72E
:1017E00019F9FFF71FFD0FB1606C386094F84800DD
:1017F000022184F84810B8F1050F0ED2DFE808F096
:101800000D03060C0A00616C294301E0616C491C60
:10181000616402E0022803D06564012802D028E058
:10182000002626E0201DFFF7B9FC1F4DE06A0121CC
:101830002A698140114329611C4900EB800001EBBA
:101840008000211DFFF7E2FCA06A28B141F23512A9
:101850000AA111A0FFF7DEF8E06A2968C96A884288
:1018600007D913494FF080500860BFF34F8FBFF383
:101870006F8FFFF713FD3046BDE8F0812E2E5C2EF2
:101880002E5C4672656552544F535C7372635C7490
:1018900061736B732E6300004572726F723A257329
:1018A0002C25640D0A000000300000209400002068
:1018B00004ED00E00548416919B1006B18B1002042
:1018C0007047012070470220704700003000002060
:1018D0002DE9F0412D4F0026386B40B1B869401C0E
:1018E000B861F86900B101263046BDE8F081FD68B5
:1018F0006D1CFD6011D1786B006828B140F6D912DB
:1019000023A12AA0FFF786F8786BB96B7963B863D7
:10191000386A401C3862FFF75FFBB86ADFF89C80CA
:10192000854209D3786B006880B1786BC068C46861
:10193000606885420DD2B8623868C06A00EB8001E9
:1019400058F821000128CCD90126CAE74FF0FF3012
:10195000F1E7201DFFF722FCA06A18B104F118007E
:10196000FFF71CFCE06A01213A69814011433961AB
:1019700000EB800108EB8100211DFFF747FCE06AC6
:101980003968C96A8842CDD30126CBE730000020F0
:101990002E2E5C2E2E5C4672656552544F535C733E
:1019A00072635C7461736B732E6300004572726FB7
:1019B000723A25732C25640D0A0000009400002063
:1019C0002DE9F0411E46154688460746FFF72AFCDA
:1019D0001C4C206890F84800022814D02068416C04
:1019E000B94341642168012081F848005EB10121BA
:1019F0003046FFF761F914494FF080500860BFF39B
:101A00004F8FBFF36F8FFFF749FCFFF70BFC15B14A
:101A10002068406C2860206890F8480001280ED0AB
:101A20002068416C21EA08014164012521680020F9
:101A300081F84800FFF732FC2846BDE8F081002518
:101A4000F4E700003000002004ED00E02DE9F0474D
:101A50002B4D00242746286B28B94FF4FD6229A19D
:101A60002FA0FEF7D7FFFFF7DDFB286B401E286392
:101A7000286BE8BBA8682E490126C8B3A1F52A79CE
:101A80008846D8F80010E9B1D8F80C00C46804F111
:101A90001800FFF783FB201DFFF780FBE06A2A692F
:101AA00006FA00F11143296100EB800109EB810086
:101AB000211DFFF7ABFBE06A2968C96A8842E0D3C1
:101AC000EE61DEE70CB1FFF787FAAC693CB1FFF7D6
:101AD000FFFE00B1EE61641EF9D10020A861E86943
:101AE00030B11449012738070860BFF34F8F00E079
:101AF00001E0BFF36F8FFFF7D1FB3846BDE8F087F9
:101B0000300000202E2E5C2E2E5C467265655254ED
:101B10004F535C7372635C7461736B732E6300006C
:101B20004572726F723A25732C25640D0A0000000D
:101B30003C03002004ED00E0D5E2CAC7D2BBB8F6F2
:101B40005BD2B0BBF05D2D53544D3332C8ABCFB533
:101B5000C1D0BFAAB7A2B0E52D4672656552544FF9
:101B600053C8CECEF1CDA8D6AAB4FACCE6CAC2BC30
:101B7000FED7E9CAB5D1E9A3A10A00009C1B000861
:101B80000000002094000000340A0008301C000807
:101B900094000020E4960000440A00080095BA0A68
:101BA000000000000000000001020304060708090D
:101BB00000000000010203040102030406070809F3
:101BC0000000000000000000000000000000000015
:101BD0000000000000000000000000000000000005
:101BE00000000000000000000000000000000000F5
:101BF00000000000000000000000000000000000E5
:101C000000000000000000000000000000000000D4
:101C100000000000000000000000000000000000C4
:101C200000000000AAAAAAAA00000000000000000C
:04000005080001AD41
:00000001FF
