:020000040800F2
:10000000280700207D020008F9020008F502000818
:10001000F7020008F1020008530400080000000085
:10002000000000000000000000000000C501000802
:10003000F30200080000000019020008CD030008C8
:10004000970200089702000897020008970200082C
:10005000970200089702000897020008970200081C
:10006000970200089702000897020008970200080C
:1000700097020008970200089702000897020008FC
:1000800097020008970200089702000897020008EC
:1000900097020008970200089702000897020008DC
:1000A00097020008970200089702000897020008CC
:1000B00097020008970200089702000897020008BC
:1000C00097020008970200089702000897020008AC
:1000D000970200089702000897020008970200089C
:1000E000970200089702000897020008970200088C
:1000F000970200089702000897020008970200087C
:10010000970200089702000897020008970200086B
:10011000970200089702000897020008970200085B
:10012000970200089702000897020008970200084B
:10013000970200089702000897020008970200083B
:10014000970200089702000897020008970200082B
:10015000970200089702000897020008970200081B
:10016000970200089702000897020008970200080B
:1001700097020008970200089702000897020008FB
:1001800097020008970200089702000897020008EB
:1001900097020008970200089702000897020008DB
:1001A000970200089702000897020008DFF810D0B5
:1001B00000F08CF80048004771060008AFF300809B
:1001C000280700202A4B19680868B0E8F04F80F330
:1001D0000988BFF36F8F4FF0000080F311887047DC
:1001E0000000000006480068006880F3088862B6D6
:1001F00061B6BFF34F8FBFF36F8F00DF00BF00BF4B
:1002000008ED00E0DFF80C00016841F470010160C6
:10021000704700BF88ED00E0EFF30980BFF36F8FF8
:10022000134B1A681EF0100F08BF20ED108A20E94A
:10023000F04F106008B44FF0500080F31188BFF306
:100240004F8FBFF36F8F00F043FA4FF0000080F341
:10025000118808BC19680868B0E8F04F1EF0100F4C
:1002600008BFB0EC108A80F30988BFF36F8F704726
:1002700000000020EFF3058070470000064880472B
:1002800006480047FEE7FEE7FEE7FEE7FEE7FEE77B
:10029000FEE7FEE7FEE7FEE7E1030008AD01000828
:1002A00030B50B46014600202022012409E021FA46
:1002B00002F59D4205D303FA02F5491B04FA02F543
:1002C0002844151EA2F10102F1DC30BD064C074D99
:1002D00006E0E06840F0010394E807009847103416
:1002E000AC42F6D3FFF766FF8C080008AC080008A4
:1002F000FEE77047FEE7FEE7704700001CB50021EF
:100300002E4A00910191106840F4803010604FF443
:10031000A043106800F4003001900098401C009049
:10032000019810B900989842F3D11068800342D523
:100330000120019021484030016841F08051016066
:100340001F49086840F4404008601C4808300368B2
:100350000360036843F400430360036843F4A0535D
:100360000360041F174B2360136843F0807313600E
:1003700013689B01FCD50A6842F480320A604A681F
:10038000D203FCD50A6842F400320A604A6892033C
:10039000FCD50D4A40F205711160016821F003019E
:1003A0000160016841F0020101600168C1F381014F
:1003B0000229FAD11CBD01911CBD00000038024089
:1003C00000700040195A4007003C024010B500F090
:1003D000D7F9012803D0BDE8104000F0BBB910BD2B
:1003E000124810B5016841F47001016010480168BD
:1003F00041F0010101600E4A0021083211600268DB
:100400000C4B1A400260031D0B4A1A60026822F46A
:100410008022026006480C300160FFF76FFF03493D
:100420004FF000608039086010BD000088ED00E0EA
:1004300000380240FFFFF6FE103000240246002084
:1004400012880A4200D001207047C1F30801818060
:100450007047FEE70FB4054B10B503A9044A029894
:1004600000F018F810BC5DF814FB00004D06000801
:100470003C00002002E008C8121F08C1002AFAD17F
:1004800070477047002001E001C1121F002AFBD114
:10049000704700002DE9FF4F8BB09A460F46054686
:1004A000002606E025280BD052460D9990476D1C7A
:1004B000761C28780028F5D10FB03046BDE8F08FC3
:1004C0000024A0460122604900E0044315F8013FE2
:1004D000203B02FA03F00842F7D128782E2817D1E2
:1004E00015F8010F44F004042A280ED06FF02F02F3
:1004F0002878A0F1300109290AD808EB880102EB1D
:10050000410100EB01086D1CF2E757F8048B6D1CEC
:10051000287869283ED006DC0028CDD063280BD08F
:10052000642804D136E0732810D075284BD0524689
:100530000D999047761C85E017F8040B8DF80000A4
:1005400000208DF80100E946012003E057F8049BE4
:100550004FF0FF3061074FF0000401D40AE0641C43
:1005600044450DDA8442FADB19F804100029F6D16B
:1005700006E0641C8442FCDB19F804100029F8D161
:10058000264404E019F8010B52460D999047641E69
:10059000F8D257E001CF4FF00A0B002802DA4042B0
:1005A0002D2102E0210504D52B218DF824100121F5
:1005B00003E0E10705D02021F7E70DF120090891BC
:1005C0000CE00021F9E701CF4FF00A0BF9E759469B
:1005D000FFF766FE01F1300209F8012D0028F6D17F
:1005E000ADEB090000F1200B600701D44FF00108CA
:1005F000D84502DDA8EB0B0000E000208046002477
:1006000006E009A85246005D0D999047641C761CCF
:1006100008988442F5DB04E0302052460D9990475B
:10062000761CB8F10001A8F10108F5DC05E019F825
:10063000010B52460D999047761CBBF10001ABF1BE
:10064000010BF4DC6D1C34E70928010070B5074D7F
:100650000446C1B22846FFF7F8FE80212846FFF77E
:10066000EDFE0028F9D0204670BD000000100140CA
:10067000002070470648416B096829B1416BC96881
:10068000C9684968816270474FF0FF31FAE700009E
:1006900000000020D0E9013201699A60D0E901230D
:1006A0005A604A68824201D182684A60002202612F
:1006B0000868401E0860704742684A6093688B6013
:1006C00093685960916008610168491C0160704736
:1006D00070B5134D286B10B10120E86170BD00208A
:1006E000E86128690F4EB0FA80F0C0F11F0000EBFE
:1006F000800456F8240028B940F6F6220AA111A079
:10070000FFF7A8FE06EB840000F108024168496883
:100710004160914201D149684160C868286070BD5C
:1007200000000020400000202E2E5C2E2E5C467221
:10073000656552544F535C7372635C7461736B7381
:100740002E6300004572726F723A25732C25640D7A
:100750000A00000010B5502080F31188BFF34F8FBE
:10076000BFF36F8F00F01AF818B104494FF08050B2
:100770000860002080F3118810BD000004ED00E047
:100780000548416919B1006B18B10020704701207C
:100790007047022070470000000000202DE9F04162
:1007A0002D4F0026386B40B1B869401CB861F8691C
:1007B00000B101263046BDE8F081FD686D1CFD608A
:1007C00011D1786B006828B140F6D91223A12AA074
:1007D000FFF740FE786BB96B7963B863386A401CE9
:1007E0003862FFF747FFB86ADFF89C80854209D37B
:1007F000786B006880B1786BC068C46860688542B7
:100800000DD2B8623868C06A00EB800158F8210048
:100810000128CCD90126CAE74FF0FF30F1E7201DAF
:10082000FFF738FFA06A18B104F11800FFF732FF94
:10083000E06A01213A6981401143396100EB80018E
:1008400008EB8100211DFFF737FFE06A3968C96AAC
:100850008842CDD30126CBE7000000202E2E5C2E4F
:100860002E5C4672656552544F535C7372635C74C0
:1008700061736B732E6300004572726F723A257359
:100880002C25640D0A00000040000020AC08000880
:10089000000000204000000074040008EC0800087C
:1008A00040000020E806000084040008000000006A
:1008B0000000000000000000000000000000000038
:1008C0000000000000000000000000000000000028
:1008D0000000000000000000000000000000000018
:0C08E0000000000000000000000000000C
:04000005080001AD41
:00000001FF
